{
  "contractName": "DinoFeedBreed",
  "abi": [
    {
      "inputs": [],
      "stateMutability": "nonpayable",
      "type": "constructor"
    },
    {
      "anonymous": false,
      "inputs": [
        {
          "indexed": false,
          "internalType": "uint256",
          "name": "dinoId",
          "type": "uint256"
        },
        {
          "indexed": false,
          "internalType": "string",
          "name": "name",
          "type": "string"
        },
        {
          "indexed": false,
          "internalType": "uint256",
          "name": "dna",
          "type": "uint256"
        }
      ],
      "name": "NewDino",
      "type": "event"
    },
    {
      "inputs": [
        {
          "internalType": "string",
          "name": "",
          "type": "string"
        }
      ],
      "name": "dinoToOwner",
      "outputs": [
        {
          "internalType": "address",
          "name": "",
          "type": "address"
        }
      ],
      "stateMutability": "view",
      "type": "function"
    },
    {
      "inputs": [
        {
          "internalType": "uint256",
          "name": "",
          "type": "uint256"
        }
      ],
      "name": "dinos",
      "outputs": [
        {
          "internalType": "string",
          "name": "name",
          "type": "string"
        },
        {
          "internalType": "uint256",
          "name": "dna",
          "type": "uint256"
        }
      ],
      "stateMutability": "view",
      "type": "function"
    },
    {
      "inputs": [],
      "name": "feedToken",
      "outputs": [
        {
          "internalType": "contract ERC20",
          "name": "",
          "type": "address"
        }
      ],
      "stateMutability": "view",
      "type": "function"
    },
    {
      "inputs": [],
      "name": "food",
      "outputs": [
        {
          "internalType": "uint256",
          "name": "",
          "type": "uint256"
        }
      ],
      "stateMutability": "view",
      "type": "function"
    },
    {
      "inputs": [],
      "name": "foodPrice",
      "outputs": [
        {
          "internalType": "uint256",
          "name": "",
          "type": "uint256"
        }
      ],
      "stateMutability": "view",
      "type": "function"
    },
    {
      "inputs": [],
      "name": "tokenPrice",
      "outputs": [
        {
          "internalType": "uint256",
          "name": "",
          "type": "uint256"
        }
      ],
      "stateMutability": "view",
      "type": "function"
    },
    {
      "inputs": [],
      "name": "buyTokens",
      "outputs": [],
      "stateMutability": "payable",
      "type": "function"
    },
    {
      "inputs": [
        {
          "internalType": "address",
          "name": "tokenOwner",
          "type": "address"
        }
      ],
      "name": "balanceOf",
      "outputs": [
        {
          "internalType": "uint256",
          "name": "",
          "type": "uint256"
        }
      ],
      "stateMutability": "view",
      "type": "function"
    },
    {
      "inputs": [
        {
          "internalType": "string",
          "name": "_name",
          "type": "string"
        }
      ],
      "name": "createRandomDino",
      "outputs": [],
      "stateMutability": "nonpayable",
      "type": "function"
    },
    {
      "inputs": [
        {
          "internalType": "uint256",
          "name": "_amount",
          "type": "uint256"
        }
      ],
      "name": "buyFoodWithTokens",
      "outputs": [],
      "stateMutability": "payable",
      "type": "function"
    },
    {
      "inputs": [
        {
          "internalType": "string",
          "name": "DinoName",
          "type": "string"
        },
        {
          "internalType": "uint256",
          "name": "_targetDna",
          "type": "uint256"
        }
      ],
      "name": "feedAndMultiply",
      "outputs": [],
      "stateMutability": "nonpayable",
      "type": "function"
    }
  ],
  "bytecode": "0x60806040526010600355600354600a6200001a919062000376565b60045560006009553480156200002f57600080fd5b506040516200003e90620001db565b604051809103906000f0801580156200005b573d6000803e3d6000fd5b50600160006101000a81548173ffffffffffffffffffffffffffffffffffffffff021916908373ffffffffffffffffffffffffffffffffffffffff16021790555033600260006101000a81548173ffffffffffffffffffffffffffffffffffffffff021916908373ffffffffffffffffffffffffffffffffffffffff160217905550600160009054906101000a900473ffffffffffffffffffffffffffffffffffffffff1673ffffffffffffffffffffffffffffffffffffffff166318160ddd6040518163ffffffff1660e01b8152600401602060405180830381865afa1580156200014b573d6000803e3d6000fd5b505050506040513d601f19601f82011682018060405250810190620001719190620003fd565b600080600260009054906101000a900473ffffffffffffffffffffffffffffffffffffffff1673ffffffffffffffffffffffffffffffffffffffff1673ffffffffffffffffffffffffffffffffffffffff168152602001908152602001600020819055506200042f565b611769806200208083390190565b7f4e487b7100000000000000000000000000000000000000000000000000000000600052601160045260246000fd5b60008160011c9050919050565b6000808291508390505b600185111562000277578086048111156200024f576200024e620001e9565b5b60018516156200025f5780820291505b80810290506200026f8562000218565b94506200022f565b94509492505050565b60008262000292576001905062000365565b81620002a2576000905062000365565b8160018114620002bb5760028114620002c657620002fc565b600191505062000365565b60ff841115620002db57620002da620001e9565b5b8360020a915084821115620002f557620002f4620001e9565b5b5062000365565b5060208310610133831016604e8410600b8410161715620003365782820a90508381111562000330576200032f620001e9565b5b62000365565b62000345848484600162000225565b925090508184048111156200035f576200035e620001e9565b5b81810290505b9392505050565b6000819050919050565b600062000383826200036c565b915062000390836200036c565b9250620003bf7fffffffffffffffffffffffffffffffffffffffffffffffffffffffffffffffff848462000280565b905092915050565b600080fd5b620003d7816200036c565b8114620003e357600080fd5b50565b600081519050620003f781620003cc565b92915050565b600060208284031215620004165762000415620003c7565b5b60006200042684828501620003e6565b91505092915050565b611c41806200043f6000396000f3fe60806040526004361061009c5760003560e01c806398b4e8d31161006457806398b4e8d31461019a5780639a29969d146101c5578063c02e128614610203578063c27308a81461021f578063d0febe4c1461024a578063d1618bec146102545761009c565b80632e2cddc1146100a15780635427d8ad146100ca578063592df758146100f557806370a08231146101325780637ff9b5961461016f575b600080fd5b3480156100ad57600080fd5b506100c860048036038101906100c391906111f7565b61027d565b005b3480156100d657600080fd5b506100df6103aa565b6040516100ec9190611259565b60405180910390f35b34801561010157600080fd5b5061011c600480360381019061011791906111f7565b6103b0565b60405161012991906112b5565b60405180910390f35b34801561013e57600080fd5b50610159600480360381019061015491906112fc565b6103f9565b6040516101669190611259565b60405180910390f35b34801561017b57600080fd5b50610184610441565b6040516101919190611259565b60405180910390f35b3480156101a657600080fd5b506101af610447565b6040516101bc9190611259565b60405180910390f35b3480156101d157600080fd5b506101ec60048036038101906101e79190611355565b61044d565b6040516101fa92919061140a565b60405180910390f35b61021d60048036038101906102189190611355565b610509565b005b34801561022b57600080fd5b506102346108b8565b6040516102419190611499565b60405180910390f35b6102526108de565b005b34801561026057600080fd5b5061027b600480360381019061027691906114b4565b610c7e565b005b600260009054906101000a900473ffffffffffffffffffffffffffffffffffffffff1673ffffffffffffffffffffffffffffffffffffffff163373ffffffffffffffffffffffffffffffffffffffff160361030d576040517f08c379a00000000000000000000000000000000000000000000000000000000081526004016103049061155c565b60405180910390fd5b6000600760003373ffffffffffffffffffffffffffffffffffffffff1673ffffffffffffffffffffffffffffffffffffffff168152602001908152602001600020541461038f576040517f08c379a000000000000000000000000000000000000000000000000000000000815260040161038690611614565b60405180910390fd5b600061039a82610e50565b90506103a68282610e95565b5050565b6103e881565b6006818051602081018201805184825260208301602085012081835280955050505050506000915054906101000a900473ffffffffffffffffffffffffffffffffffffffff1681565b60008060008373ffffffffffffffffffffffffffffffffffffffff1673ffffffffffffffffffffffffffffffffffffffff168152602001908152602001600020549050919050565b6103e881565b60095481565b6005818154811061045d57600080fd5b906000526020600020906002020160009150905080600001805461048090611663565b80601f01602080910402602001604051908101604052809291908181526020018280546104ac90611663565b80156104f95780601f106104ce576101008083540402835291602001916104f9565b820191906000526020600020905b8154815290600101906020018083116104dc57829003601f168201915b5050505050908060010154905082565b600260009054906101000a900473ffffffffffffffffffffffffffffffffffffffff1673ffffffffffffffffffffffffffffffffffffffff163373ffffffffffffffffffffffffffffffffffffffff1603610599576040517f08c379a00000000000000000000000000000000000000000000000000000000081526004016105909061155c565b60405180910390fd5b6000339050816000808373ffffffffffffffffffffffffffffffffffffffff1673ffffffffffffffffffffffffffffffffffffffff16815260200190815260200160002054101561061f576040517f08c379a000000000000000000000000000000000000000000000000000000000815260040161061690611706565b60405180910390fd5b6000829050806103e86106329190611755565b600881905550600160009054906101000a900473ffffffffffffffffffffffffffffffffffffffff1673ffffffffffffffffffffffffffffffffffffffff1663a9059cbb600260009054906101000a900473ffffffffffffffffffffffffffffffffffffffff166008546040518363ffffffff1660e01b81526004016106b99291906117d0565b6020604051808303816000875af11580156106d8573d6000803e3d6000fd5b505050506040513d601f19601f820116820180604052508101906106fc9190611831565b508060095461070b919061185e565b60098190555080600080600260009054906101000a900473ffffffffffffffffffffffffffffffffffffffff1673ffffffffffffffffffffffffffffffffffffffff1673ffffffffffffffffffffffffffffffffffffffff1681526020019081526020016000205461077d919061185e565b600080600260009054906101000a900473ffffffffffffffffffffffffffffffffffffffff1673ffffffffffffffffffffffffffffffffffffffff1673ffffffffffffffffffffffffffffffffffffffff16815260200190815260200160002081905550806000808473ffffffffffffffffffffffffffffffffffffffff1673ffffffffffffffffffffffffffffffffffffffff1681526020019081526020016000205461082b91906118b4565b6000808473ffffffffffffffffffffffffffffffffffffffff1673ffffffffffffffffffffffffffffffffffffffff16815260200190815260200160002081905550600954600a60008473ffffffffffffffffffffffffffffffffffffffff1673ffffffffffffffffffffffffffffffffffffffff16815260200190815260200160002081905550505050565b600160009054906101000a900473ffffffffffffffffffffffffffffffffffffffff1681565b60003411610921576040517f08c379a00000000000000000000000000000000000000000000000000000000081526004016109189061195a565b60405180910390fd5b600260009054906101000a900473ffffffffffffffffffffffffffffffffffffffff1673ffffffffffffffffffffffffffffffffffffffff163373ffffffffffffffffffffffffffffffffffffffff16036109b1576040517f08c379a00000000000000000000000000000000000000000000000000000000081526004016109a89061155c565b60405180910390fd5b34600080600260009054906101000a900473ffffffffffffffffffffffffffffffffffffffff1673ffffffffffffffffffffffffffffffffffffffff1673ffffffffffffffffffffffffffffffffffffffff1681526020019081526020016000205411610a53576040517f08c379a0000000000000000000000000000000000000000000000000000000008152600401610a4a906119ec565b60405180910390fd5b60003490506000339050600260009054906101000a900473ffffffffffffffffffffffffffffffffffffffff1673ffffffffffffffffffffffffffffffffffffffff166108fc839081150290604051600060405180830381858888f19350505050158015610ac5573d6000803e3d6000fd5b50600160009054906101000a900473ffffffffffffffffffffffffffffffffffffffff1673ffffffffffffffffffffffffffffffffffffffff1663a9059cbb82846040518363ffffffff1660e01b8152600401610b23929190611a0c565b6020604051808303816000875af1158015610b42573d6000803e3d6000fd5b505050506040513d601f19601f82011682018060405250810190610b669190611831565b5081600080600260009054906101000a900473ffffffffffffffffffffffffffffffffffffffff1673ffffffffffffffffffffffffffffffffffffffff1673ffffffffffffffffffffffffffffffffffffffff16815260200190815260200160002054610bd391906118b4565b600080600260009054906101000a900473ffffffffffffffffffffffffffffffffffffffff1673ffffffffffffffffffffffffffffffffffffffff1673ffffffffffffffffffffffffffffffffffffffff16815260200190815260200160002081905550816000808373ffffffffffffffffffffffffffffffffffffffff1673ffffffffffffffffffffffffffffffffffffffff168152602001908152602001600020819055505050565b600260009054906101000a900473ffffffffffffffffffffffffffffffffffffffff1673ffffffffffffffffffffffffffffffffffffffff163373ffffffffffffffffffffffffffffffffffffffff1603610d0e576040517f08c379a0000000000000000000000000000000000000000000000000000000008152600401610d059061155c565b60405180910390fd5b600682604051610d1e9190611a71565b908152602001604051809103902060009054906101000a900473ffffffffffffffffffffffffffffffffffffffff1673ffffffffffffffffffffffffffffffffffffffff163373ffffffffffffffffffffffffffffffffffffffff1614610d8457600080fd5b60016009541015610dca576040517f08c379a0000000000000000000000000000000000000000000000000000000008152600401610dc190611ad4565b60405180910390fd5b60045481610dd89190611b23565b90506000600282602a610deb919061185e565b610df59190611b54565b9050610e366040518060400160405280600a81526020017f4368696c642044696e6f0000000000000000000000000000000000000000000081525082610e95565b6001600954610e4591906118b4565b600981905550505050565b60008082604051602001610e649190611a71565b6040516020818303038152906040528051906020012060001c905060045481610e8d9190611b23565b915050919050565b600560405180604001604052808481526020018381525090806001815401808255809150506001900390600052602060002090600202016000909190919091506000820151816000019080519060200190610ef1929190610ffa565b506020820151816001015550506000600580549050905033600684604051610f199190611a71565b908152602001604051809103902060006101000a81548173ffffffffffffffffffffffffffffffffffffffff021916908373ffffffffffffffffffffffffffffffffffffffff160217905550600760003373ffffffffffffffffffffffffffffffffffffffff1673ffffffffffffffffffffffffffffffffffffffff1681526020019081526020016000206000815480929190610fb590611b85565b91905055507f746c47719a20310ebe305172c2326d4a2b529306fda78a74f2e0875f0a3f34d0818484604051610fed93929190611bcd565b60405180910390a1505050565b82805461100690611663565b90600052602060002090601f016020900481019282611028576000855561106f565b82601f1061104157805160ff191683800117855561106f565b8280016001018555821561106f579182015b8281111561106e578251825591602001919060010190611053565b5b50905061107c9190611080565b5090565b5b80821115611099576000816000905550600101611081565b5090565b6000604051905090565b600080fd5b600080fd5b600080fd5b600080fd5b6000601f19601f8301169050919050565b7f4e487b7100000000000000000000000000000000000000000000000000000000600052604160045260246000fd5b611104826110bb565b810181811067ffffffffffffffff82111715611123576111226110cc565b5b80604052505050565b600061113661109d565b905061114282826110fb565b919050565b600067ffffffffffffffff821115611162576111616110cc565b5b61116b826110bb565b9050602081019050919050565b82818337600083830152505050565b600061119a61119584611147565b61112c565b9050828152602081018484840111156111b6576111b56110b6565b5b6111c1848285611178565b509392505050565b600082601f8301126111de576111dd6110b1565b5b81356111ee848260208601611187565b91505092915050565b60006020828403121561120d5761120c6110a7565b5b600082013567ffffffffffffffff81111561122b5761122a6110ac565b5b611237848285016111c9565b91505092915050565b6000819050919050565b61125381611240565b82525050565b600060208201905061126e600083018461124a565b92915050565b600073ffffffffffffffffffffffffffffffffffffffff82169050919050565b600061129f82611274565b9050919050565b6112af81611294565b82525050565b60006020820190506112ca60008301846112a6565b92915050565b6112d981611294565b81146112e457600080fd5b50565b6000813590506112f6816112d0565b92915050565b600060208284031215611312576113116110a7565b5b6000611320848285016112e7565b91505092915050565b61133281611240565b811461133d57600080fd5b50565b60008135905061134f81611329565b92915050565b60006020828403121561136b5761136a6110a7565b5b600061137984828501611340565b91505092915050565b600081519050919050565b600082825260208201905092915050565b60005b838110156113bc5780820151818401526020810190506113a1565b838111156113cb576000848401525b50505050565b60006113dc82611382565b6113e6818561138d565b93506113f681856020860161139e565b6113ff816110bb565b840191505092915050565b6000604082019050818103600083015261142481856113d1565b9050611433602083018461124a565b9392505050565b6000819050919050565b600061145f61145a61145584611274565b61143a565b611274565b9050919050565b600061147182611444565b9050919050565b600061148382611466565b9050919050565b61149381611478565b82525050565b60006020820190506114ae600083018461148a565b92915050565b600080604083850312156114cb576114ca6110a7565b5b600083013567ffffffffffffffff8111156114e9576114e86110ac565b5b6114f5858286016111c9565b925050602061150685828601611340565b9150509250929050565b7f596f752063616e6e6f742062757920617320746865206f776e65722100000000600082015250565b6000611546601c8361138d565b915061155182611510565b602082019050919050565b6000602082019050818103600083015261157581611539565b9050919050565b7f596f7520616c7265616479206372656174656420796f7572206669727374207260008201527f616e646f6d2044696e6f2e204665656420796f7572206578697374696e67206460208201527f696e6f20746f206d756c7469706c792100000000000000000000000000000000604082015250565b60006115fe60508361138d565b91506116098261157c565b606082019050919050565b6000602082019050818103600083015261162d816115f1565b9050919050565b7f4e487b7100000000000000000000000000000000000000000000000000000000600052602260045260246000fd5b6000600282049050600182168061167b57607f821691505b60208210810361168e5761168d611634565b5b50919050565b7f596f7520646f6e2774206861766520656e6f75676820746f6b656e7320746f2060008201527f62757920666f6f64210000000000000000000000000000000000000000000000602082015250565b60006116f060298361138d565b91506116fb82611694565b604082019050919050565b6000602082019050818103600083015261171f816116e3565b9050919050565b7f4e487b7100000000000000000000000000000000000000000000000000000000600052601160045260246000fd5b600061176082611240565b915061176b83611240565b9250817fffffffffffffffffffffffffffffffffffffffffffffffffffffffffffffffff04831182151516156117a4576117a3611726565b5b828202905092915050565b60006117ba82611466565b9050919050565b6117ca816117af565b82525050565b60006040820190506117e560008301856117c1565b6117f2602083018461124a565b9392505050565b60008115159050919050565b61180e816117f9565b811461181957600080fd5b50565b60008151905061182b81611805565b92915050565b600060208284031215611847576118466110a7565b5b60006118558482850161181c565b91505092915050565b600061186982611240565b915061187483611240565b9250827fffffffffffffffffffffffffffffffffffffffffffffffffffffffffffffffff038211156118a9576118a8611726565b5b828201905092915050565b60006118bf82611240565b91506118ca83611240565b9250828210156118dd576118dc611726565b5b828203905092915050565b7f54686520726174696f206265747765656e2074686520746f6b656e732069732060008201527f313a312c2073656e64206d6f7265207765692100000000000000000000000000602082015250565b600061194460338361138d565b915061194f826118e8565b604082019050919050565b6000602082019050818103600083015261197381611937565b9050919050565b7f54686520746f6b656e207265736572766520686173206c657373207468616e2060008201527f74686520616d6f756e7420796f752072657175657374656420746f2062757921602082015250565b60006119d660408361138d565b91506119e18261197a565b604082019050919050565b60006020820190508181036000830152611a05816119c9565b9050919050565b6000604082019050611a2160008301856112a6565b611a2e602083018461124a565b9392505050565b600081905092915050565b6000611a4b82611382565b611a558185611a35565b9350611a6581856020860161139e565b80840191505092915050565b6000611a7d8284611a40565b915081905092915050565b7f4e6f7420656e6f75676820666f6f642100000000000000000000000000000000600082015250565b6000611abe60108361138d565b9150611ac982611a88565b602082019050919050565b60006020820190508181036000830152611aed81611ab1565b9050919050565b7f4e487b7100000000000000000000000000000000000000000000000000000000600052601260045260246000fd5b6000611b2e82611240565b9150611b3983611240565b925082611b4957611b48611af4565b5b828206905092915050565b6000611b5f82611240565b9150611b6a83611240565b925082611b7a57611b79611af4565b5b828204905092915050565b6000611b9082611240565b91507fffffffffffffffffffffffffffffffffffffffffffffffffffffffffffffffff8203611bc257611bc1611726565b5b600182019050919050565b6000606082019050611be2600083018661124a565b8181036020830152611bf481856113d1565b9050611c03604083018461124a565b94935050505056fea2646970667358221220fd9e0c7fca5101050b86ba08667039765820cc2a1f71ef57bc2105a802920fb164736f6c634300080e0033608060405267f9ccd8a1c50800006005553480156200001d57600080fd5b506040518060400160405280600981526020017f46656564546f6b656e00000000000000000000000000000000000000000000008152506040518060400160405280600381526020017f46424400000000000000000000000000000000000000000000000000000000008152508160039080519060200190620000a292919062000270565b508060049080519060200190620000bb92919062000270565b505050620000ce620000e960201b60201c565b50620000e333600554620000ee60201b60201c565b620004cb565b600090565b600073ffffffffffffffffffffffffffffffffffffffff168273ffffffffffffffffffffffffffffffffffffffff160362000160576040517f08c379a0000000000000000000000000000000000000000000000000000000008152600401620001579062000381565b60405180910390fd5b62000174600083836200026660201b60201c565b8060026000828254620001889190620003dc565b92505081905550806000808473ffffffffffffffffffffffffffffffffffffffff1673ffffffffffffffffffffffffffffffffffffffff1681526020019081526020016000206000828254620001df9190620003dc565b925050819055508173ffffffffffffffffffffffffffffffffffffffff16600073ffffffffffffffffffffffffffffffffffffffff167fddf252ad1be2c89b69c2b068fc378daa952ba7f163c4a11628f55a4df523b3ef836040516200024691906200044a565b60405180910390a362000262600083836200026b60201b60201c565b5050565b505050565b505050565b8280546200027e9062000496565b90600052602060002090601f016020900481019282620002a25760008555620002ee565b82601f10620002bd57805160ff1916838001178555620002ee565b82800160010185558215620002ee579182015b82811115620002ed578251825591602001919060010190620002d0565b5b509050620002fd919062000301565b5090565b5b808211156200031c57600081600090555060010162000302565b5090565b600082825260208201905092915050565b7f45524332303a206d696e7420746f20746865207a65726f206164647265737300600082015250565b600062000369601f8362000320565b9150620003768262000331565b602082019050919050565b600060208201905081810360008301526200039c816200035a565b9050919050565b6000819050919050565b7f4e487b7100000000000000000000000000000000000000000000000000000000600052601160045260246000fd5b6000620003e982620003a3565b9150620003f683620003a3565b9250827fffffffffffffffffffffffffffffffffffffffffffffffffffffffffffffffff038211156200042e576200042d620003ad565b5b828201905092915050565b6200044481620003a3565b82525050565b600060208201905062000461600083018462000439565b92915050565b7f4e487b7100000000000000000000000000000000000000000000000000000000600052602260045260246000fd5b60006002820490506001821680620004af57607f821691505b602082108103620004c557620004c462000467565b5b50919050565b61128e80620004db6000396000f3fe608060405234801561001057600080fd5b50600436106100b45760003560e01c80633950935111610071578063395093511461019157806370a08231146101c157806395d89b41146101f1578063a457c2d71461020f578063a9059cbb1461023f578063dd62ed3e1461026f576100b4565b806306fdde03146100b9578063095ea7b3146100d757806318160ddd1461010757806323b872dd146101255780632ff2e9dc14610155578063313ce56714610173575b600080fd5b6100c161029f565b6040516100ce9190610b49565b60405180910390f35b6100f160048036038101906100ec9190610c04565b610331565b6040516100fe9190610c5f565b60405180910390f35b61010f610354565b60405161011c9190610c89565b60405180910390f35b61013f600480360381019061013a9190610ca4565b61035e565b60405161014c9190610c5f565b60405180910390f35b61015d61038d565b60405161016a9190610c89565b60405180910390f35b61017b610393565b6040516101889190610d13565b60405180910390f35b6101ab60048036038101906101a69190610c04565b610398565b6040516101b89190610c5f565b60405180910390f35b6101db60048036038101906101d69190610d2e565b6103cf565b6040516101e89190610c89565b60405180910390f35b6101f9610417565b6040516102069190610b49565b60405180910390f35b61022960048036038101906102249190610c04565b6104a9565b6040516102369190610c5f565b60405180910390f35b61025960048036038101906102549190610c04565b610520565b6040516102669190610c5f565b60405180910390f35b61028960048036038101906102849190610d5b565b610543565b6040516102969190610c89565b60405180910390f35b6060600380546102ae90610dca565b80601f01602080910402602001604051908101604052809291908181526020018280546102da90610dca565b80156103275780601f106102fc57610100808354040283529160200191610327565b820191906000526020600020905b81548152906001019060200180831161030a57829003601f168201915b5050505050905090565b60008061033c6105ca565b90506103498185856105d2565b600191505092915050565b6000600254905090565b6000806103696105ca565b905061037685828561079b565b610381858585610827565b60019150509392505050565b60055481565b600090565b6000806103a36105ca565b90506103c48185856103b58589610543565b6103bf9190610e2a565b6105d2565b600191505092915050565b60008060008373ffffffffffffffffffffffffffffffffffffffff1673ffffffffffffffffffffffffffffffffffffffff168152602001908152602001600020549050919050565b60606004805461042690610dca565b80601f016020809104026020016040519081016040528092919081815260200182805461045290610dca565b801561049f5780601f106104745761010080835404028352916020019161049f565b820191906000526020600020905b81548152906001019060200180831161048257829003601f168201915b5050505050905090565b6000806104b46105ca565b905060006104c28286610543565b905083811015610507576040517f08c379a00000000000000000000000000000000000000000000000000000000081526004016104fe90610ef2565b60405180910390fd5b61051482868684036105d2565b60019250505092915050565b60008061052b6105ca565b9050610538818585610827565b600191505092915050565b6000600160008473ffffffffffffffffffffffffffffffffffffffff1673ffffffffffffffffffffffffffffffffffffffff16815260200190815260200160002060008373ffffffffffffffffffffffffffffffffffffffff1673ffffffffffffffffffffffffffffffffffffffff16815260200190815260200160002054905092915050565b600033905090565b600073ffffffffffffffffffffffffffffffffffffffff168373ffffffffffffffffffffffffffffffffffffffff1603610641576040517f08c379a000000000000000000000000000000000000000000000000000000000815260040161063890610f84565b60405180910390fd5b600073ffffffffffffffffffffffffffffffffffffffff168273ffffffffffffffffffffffffffffffffffffffff16036106b0576040517f08c379a00000000000000000000000000000000000000000000000000000000081526004016106a790611016565b60405180910390fd5b80600160008573ffffffffffffffffffffffffffffffffffffffff1673ffffffffffffffffffffffffffffffffffffffff16815260200190815260200160002060008473ffffffffffffffffffffffffffffffffffffffff1673ffffffffffffffffffffffffffffffffffffffff168152602001908152602001600020819055508173ffffffffffffffffffffffffffffffffffffffff168373ffffffffffffffffffffffffffffffffffffffff167f8c5be1e5ebec7d5bd14f71427d1e84f3dd0314c0f7b2291e5b200ac8c7c3b9258360405161078e9190610c89565b60405180910390a3505050565b60006107a78484610543565b90507fffffffffffffffffffffffffffffffffffffffffffffffffffffffffffffffff81146108215781811015610813576040517f08c379a000000000000000000000000000000000000000000000000000000000815260040161080a90611082565b60405180910390fd5b61082084848484036105d2565b5b50505050565b600073ffffffffffffffffffffffffffffffffffffffff168373ffffffffffffffffffffffffffffffffffffffff1603610896576040517f08c379a000000000000000000000000000000000000000000000000000000000815260040161088d90611114565b60405180910390fd5b600073ffffffffffffffffffffffffffffffffffffffff168273ffffffffffffffffffffffffffffffffffffffff1603610905576040517f08c379a00000000000000000000000000000000000000000000000000000000081526004016108fc906111a6565b60405180910390fd5b610910838383610aa6565b60008060008573ffffffffffffffffffffffffffffffffffffffff1673ffffffffffffffffffffffffffffffffffffffff16815260200190815260200160002054905081811015610996576040517f08c379a000000000000000000000000000000000000000000000000000000000815260040161098d90611238565b60405180910390fd5b8181036000808673ffffffffffffffffffffffffffffffffffffffff1673ffffffffffffffffffffffffffffffffffffffff16815260200190815260200160002081905550816000808573ffffffffffffffffffffffffffffffffffffffff1673ffffffffffffffffffffffffffffffffffffffff1681526020019081526020016000206000828254610a299190610e2a565b925050819055508273ffffffffffffffffffffffffffffffffffffffff168473ffffffffffffffffffffffffffffffffffffffff167fddf252ad1be2c89b69c2b068fc378daa952ba7f163c4a11628f55a4df523b3ef84604051610a8d9190610c89565b60405180910390a3610aa0848484610aab565b50505050565b505050565b505050565b600081519050919050565b600082825260208201905092915050565b60005b83811015610aea578082015181840152602081019050610acf565b83811115610af9576000848401525b50505050565b6000601f19601f8301169050919050565b6000610b1b82610ab0565b610b258185610abb565b9350610b35818560208601610acc565b610b3e81610aff565b840191505092915050565b60006020820190508181036000830152610b638184610b10565b905092915050565b600080fd5b600073ffffffffffffffffffffffffffffffffffffffff82169050919050565b6000610b9b82610b70565b9050919050565b610bab81610b90565b8114610bb657600080fd5b50565b600081359050610bc881610ba2565b92915050565b6000819050919050565b610be181610bce565b8114610bec57600080fd5b50565b600081359050610bfe81610bd8565b92915050565b60008060408385031215610c1b57610c1a610b6b565b5b6000610c2985828601610bb9565b9250506020610c3a85828601610bef565b9150509250929050565b60008115159050919050565b610c5981610c44565b82525050565b6000602082019050610c746000830184610c50565b92915050565b610c8381610bce565b82525050565b6000602082019050610c9e6000830184610c7a565b92915050565b600080600060608486031215610cbd57610cbc610b6b565b5b6000610ccb86828701610bb9565b9350506020610cdc86828701610bb9565b9250506040610ced86828701610bef565b9150509250925092565b600060ff82169050919050565b610d0d81610cf7565b82525050565b6000602082019050610d286000830184610d04565b92915050565b600060208284031215610d4457610d43610b6b565b5b6000610d5284828501610bb9565b91505092915050565b60008060408385031215610d7257610d71610b6b565b5b6000610d8085828601610bb9565b9250506020610d9185828601610bb9565b9150509250929050565b7f4e487b7100000000000000000000000000000000000000000000000000000000600052602260045260246000fd5b60006002820490506001821680610de257607f821691505b602082108103610df557610df4610d9b565b5b50919050565b7f4e487b7100000000000000000000000000000000000000000000000000000000600052601160045260246000fd5b6000610e3582610bce565b9150610e4083610bce565b9250827fffffffffffffffffffffffffffffffffffffffffffffffffffffffffffffffff03821115610e7557610e74610dfb565b5b828201905092915050565b7f45524332303a2064656372656173656420616c6c6f77616e63652062656c6f7760008201527f207a65726f000000000000000000000000000000000000000000000000000000602082015250565b6000610edc602583610abb565b9150610ee782610e80565b604082019050919050565b60006020820190508181036000830152610f0b81610ecf565b9050919050565b7f45524332303a20617070726f76652066726f6d20746865207a65726f2061646460008201527f7265737300000000000000000000000000000000000000000000000000000000602082015250565b6000610f6e602483610abb565b9150610f7982610f12565b604082019050919050565b60006020820190508181036000830152610f9d81610f61565b9050919050565b7f45524332303a20617070726f766520746f20746865207a65726f20616464726560008201527f7373000000000000000000000000000000000000000000000000000000000000602082015250565b6000611000602283610abb565b915061100b82610fa4565b604082019050919050565b6000602082019050818103600083015261102f81610ff3565b9050919050565b7f45524332303a20696e73756666696369656e7420616c6c6f77616e6365000000600082015250565b600061106c601d83610abb565b915061107782611036565b602082019050919050565b6000602082019050818103600083015261109b8161105f565b9050919050565b7f45524332303a207472616e736665722066726f6d20746865207a65726f20616460008201527f6472657373000000000000000000000000000000000000000000000000000000602082015250565b60006110fe602583610abb565b9150611109826110a2565b604082019050919050565b6000602082019050818103600083015261112d816110f1565b9050919050565b7f45524332303a207472616e7366657220746f20746865207a65726f206164647260008201527f6573730000000000000000000000000000000000000000000000000000000000602082015250565b6000611190602383610abb565b915061119b82611134565b604082019050919050565b600060208201905081810360008301526111bf81611183565b9050919050565b7f45524332303a207472616e7366657220616d6f756e742065786365656473206260008201527f616c616e63650000000000000000000000000000000000000000000000000000602082015250565b6000611222602683610abb565b915061122d826111c6565b604082019050919050565b6000602082019050818103600083015261125181611215565b905091905056fea2646970667358221220d96ee8ab5dafb8ab822fd610afd35ce3c3dbe401e7a1831efa429d2374de171b64736f6c634300080e0033",
  "immutableReferences": {},
  "source": "// SPDX-License-Identifier: GPL-3.0\n\npragma solidity ^0.8.0;\n\nimport \"./FeedToken.sol\";\n\ncontract DinoFeedBreed {\n\n    mapping(address => uint256) balances;\n\n\n    ERC20 public feedToken;\n    address payable owner;\n    \n    constructor() {\n        feedToken = new FeedToken();\n        owner = payable(msg.sender);\n        balances[owner] = feedToken.totalSupply();\n    }\n\n\n    modifier isOwner() {\n        require(msg.sender == owner, \"You are not the contract owner!\");\n        _;\n    }\n\n    modifier isNotOwner() {\n        require(msg.sender != owner, \"You cannot buy as the owner!\");\n        _;\n    }\n\n    modifier isRatio() {\n        require(msg.value > 0, \"The ratio between the tokens is 1:1, send more wei!\");\n        _;\n    }\n\n    function buyTokens() payable isRatio public {\n        require(msg.sender != owner, \"You cannot buy as the owner!\");\n        require(balances[owner] > msg.value, \"The token reserve has less than the amount you requested to buy!\");\n\n        uint256 amountToBuy = msg.value;\n        \n        address tokenBuyer = payable(msg.sender);\n        \n        //Sending money to the owner of contract\n        owner.transfer(amountToBuy);\n\n        //Send the token to the buyer\n        feedToken.transfer(tokenBuyer, amountToBuy);\n\n        //Updating values\n        balances[owner] = balances[owner] - amountToBuy;\n        balances[tokenBuyer] = amountToBuy;\n    }\n\n      function balanceOf(address tokenOwner) public view returns (uint256) {\n        return balances[tokenOwner];\n    }  \n\n\n    uint256 dinoDnaDigits = 16;\n    uint dnaModulus = 10 ** dinoDnaDigits;\n    \n    event NewDino(uint dinoId, string name, uint dna);\n    \n    struct Dino {\n        string name;\n        uint dna;\n    }\n    \n    Dino[] public dinos;\n    \n    mapping (string => address) public dinoToOwner;\n    mapping (address => uint) ownerDinoCount;\n    \n    function _createDino(string memory _name, uint _dna) internal {\n        dinos.push(Dino(_name, _dna));\n        uint256 id = dinos.length;\n        \n        dinoToOwner[_name] = msg.sender;\n        ownerDinoCount[msg.sender]++;\n        \n        emit NewDino(id, _name, _dna);\n    }\n    \n    function _generateRandomDna(string memory _str) private view returns (uint) {\n        uint rand = uint(keccak256(abi.encodePacked(_str)));\n        return rand % dnaModulus;\n    }\n    \n    function createRandomDino(string memory _name) isNotOwner public {\n        require(ownerDinoCount[msg.sender] == 0, \"You already created your first random Dino. Feed your existing dino to multiply!\");\n        \n        uint randDna = _generateRandomDna(_name);\n        _createDino(_name, randDna);\n    }\n\n\n    uint256 public constant foodPrice = 1000 wei; // 1 food for 1000 wei\n    uint256 public constant tokenPrice = 1000 wei; // 1 token for 1000 wei\n    uint256 private totalCost; //cost of food in feed tokens\n    uint256 public food = 0; \n    mapping(address => uint256) foodBalances;\n\n\n    function buyFoodWithTokens(uint _amount) isNotOwner external payable {\n        \n        address foodBuyer = payable(msg.sender);\n\n        require(balances[foodBuyer] >= _amount, \"You don't have enough tokens to buy food!\");\n        \n        uint256 foodAmountToBuy = _amount;\n\n        totalCost = foodPrice * foodAmountToBuy;\n        //Sending money to the owner of contract\n        feedToken.transfer(owner, totalCost);\n        //owner.transfer(foodAmountToBuy);\n\n        //Send the food to the buyer\n        food = food+foodAmountToBuy;\n\n        //Updating values\n        balances[owner] = balances[owner] + foodAmountToBuy;\n        balances[foodBuyer] = balances[foodBuyer] - foodAmountToBuy;\n        foodBalances[foodBuyer] = food;\n    }\n\n/// ERROR IN FUNCTION WHEN USING STRING DINO NAME INSTEAD OF UINT DINO_ID////\n    function feedAndMultiply(string memory DinoName, uint _targetDna) isNotOwner public {\n      require(msg.sender == dinoToOwner[DinoName]);\n      require(food >=1, \"Not enough food!\");\n    \n      // Dino storage myDinos = dinos[DinoName];\n    \n      _targetDna = _targetDna % dnaModulus;\n    \n      // uint newDna = (myDinos.dna + _targetDna) / 2;\n    \n      uint newDna = (42 + _targetDna) / 2;\n    \n      _createDino(\"Child Dino\", newDna);\n      food = food -1;\n\n    }\n}",
  "sourcePath": "/home/mark/Documents/contracts/DinoFeedBreed.sol",
  "compiler": {
    "name": "solc",
    "version": "0.8.14+commit.80d49f37.Emscripten.clang"
  },
  "schemaVersion": "3.4.7",
  "updatedAt": "2022-06-07T07:31:11.352Z",
  "devdoc": {
    "kind": "dev",
    "methods": {},
    "version": 1
  },
  "userdoc": {
    "kind": "user",
    "methods": {
      "feedAndMultiply(string,uint256)": {
        "notice": "ERROR IN FUNCTION WHEN USING STRING DINO NAME INSTEAD OF UINT DINO_ID////"
      }
    },
    "version": 1
  }
}